{
  "abi": [
    {
      "inputs": [],
      "stateMutability": "nonpayable",
      "type": "constructor"
    },
    {
      "anonymous": false,
      "inputs": [
        {
          "indexed": true,
          "internalType": "address",
          "name": "owner",
          "type": "address"
        },
        {
          "indexed": true,
          "internalType": "address",
          "name": "spender",
          "type": "address"
        },
        {
          "indexed": false,
          "internalType": "uint256",
          "name": "value",
          "type": "uint256"
        }
      ],
      "name": "Approval",
      "type": "event"
    },
    {
      "anonymous": false,
      "inputs": [
        {
          "indexed": true,
          "internalType": "address",
          "name": "from",
          "type": "address"
        },
        {
          "indexed": true,
          "internalType": "address",
          "name": "to",
          "type": "address"
        },
        {
          "indexed": false,
          "internalType": "uint256",
          "name": "value",
          "type": "uint256"
        }
      ],
      "name": "Transfer",
      "type": "event"
    },
    {
      "inputs": [
        {
          "internalType": "address",
          "name": "_owner",
          "type": "address"
        },
        {
          "internalType": "address",
          "name": "_spender",
          "type": "address"
        }
      ],
      "name": "allowance",
      "outputs": [
        {
          "internalType": "uint256",
          "name": "remaining",
          "type": "uint256"
        }
      ],
      "stateMutability": "view",
      "type": "function"
    },
    {
      "inputs": [
        {
          "internalType": "address",
          "name": "",
          "type": "address"
        },
        {
          "internalType": "address",
          "name": "",
          "type": "address"
        }
      ],
      "name": "allowed",
      "outputs": [
        {
          "internalType": "uint256",
          "name": "",
          "type": "uint256"
        }
      ],
      "stateMutability": "view",
      "type": "function"
    },
    {
      "inputs": [
        {
          "internalType": "address",
          "name": "_spender",
          "type": "address"
        },
        {
          "internalType": "uint256",
          "name": "_amount",
          "type": "uint256"
        }
      ],
      "name": "approve",
      "outputs": [
        {
          "internalType": "bool",
          "name": "success",
          "type": "bool"
        }
      ],
      "stateMutability": "nonpayable",
      "type": "function"
    },
    {
      "inputs": [
        {
          "internalType": "address",
          "name": "_owner",
          "type": "address"
        }
      ],
      "name": "balanceOf",
      "outputs": [
        {
          "internalType": "uint256",
          "name": "balance",
          "type": "uint256"
        }
      ],
      "stateMutability": "view",
      "type": "function"
    },
    {
      "inputs": [
        {
          "internalType": "address",
          "name": "",
          "type": "address"
        }
      ],
      "name": "balances",
      "outputs": [
        {
          "internalType": "uint256",
          "name": "",
          "type": "uint256"
        }
      ],
      "stateMutability": "view",
      "type": "function"
    },
    {
      "inputs": [],
      "name": "decimals",
      "outputs": [
        {
          "internalType": "uint8",
          "name": "",
          "type": "uint8"
        }
      ],
      "stateMutability": "view",
      "type": "function"
    },
    {
      "inputs": [
        {
          "internalType": "address",
          "name": "to",
          "type": "address"
        },
        {
          "internalType": "uint256",
          "name": "amount",
          "type": "uint256"
        }
      ],
      "name": "mint",
      "outputs": [],
      "stateMutability": "nonpayable",
      "type": "function"
    },
    {
      "inputs": [],
      "name": "name",
      "outputs": [
        {
          "internalType": "string",
          "name": "",
          "type": "string"
        }
      ],
      "stateMutability": "view",
      "type": "function"
    },
    {
      "inputs": [],
      "name": "owner",
      "outputs": [
        {
          "internalType": "address",
          "name": "",
          "type": "address"
        }
      ],
      "stateMutability": "view",
      "type": "function"
    },
    {
      "inputs": [],
      "name": "symbol",
      "outputs": [
        {
          "internalType": "string",
          "name": "",
          "type": "string"
        }
      ],
      "stateMutability": "view",
      "type": "function"
    },
    {
      "inputs": [],
      "name": "totalSupply",
      "outputs": [
        {
          "internalType": "uint256",
          "name": "totalSupply",
          "type": "uint256"
        }
      ],
      "stateMutability": "view",
      "type": "function"
    },
    {
      "inputs": [
        {
          "internalType": "address",
          "name": "_to",
          "type": "address"
        },
        {
          "internalType": "uint256",
          "name": "_amount",
          "type": "uint256"
        }
      ],
      "name": "transfer",
      "outputs": [
        {
          "internalType": "bool",
          "name": "success",
          "type": "bool"
        }
      ],
      "stateMutability": "nonpayable",
      "type": "function"
    },
    {
      "inputs": [
        {
          "internalType": "address",
          "name": "_from",
          "type": "address"
        },
        {
          "internalType": "address",
          "name": "_to",
          "type": "address"
        },
        {
          "internalType": "uint256",
          "name": "_amount",
          "type": "uint256"
        }
      ],
      "name": "transferFrom",
      "outputs": [
        {
          "internalType": "bool",
          "name": "success",
          "type": "bool"
        }
      ],
      "stateMutability": "nonpayable",
      "type": "function"
    }
  ],
  "bytecode": {
    "object": "0x6080604052620000126008600a62000174565b62000022906301406f4062000189565b6000553480156200003257600080fd5b50600180546001600160a01b031916339081179091556000805491815260026020526040902055620001a3565b634e487b7160e01b600052601160045260246000fd5b600181815b80851115620000b65781600019048211156200009a576200009a6200005f565b80851615620000a857918102915b93841c93908002906200007a565b509250929050565b600082620000cf575060016200016e565b81620000de575060006200016e565b8160018114620000f75760028114620001025762000122565b60019150506200016e565b60ff8411156200011657620001166200005f565b50506001821b6200016e565b5060208310610133831016604e8410600b841016171562000147575081810a6200016e565b62000153838362000075565b80600019048211156200016a576200016a6200005f565b0290505b92915050565b6000620001828383620000be565b9392505050565b80820281158282048414176200016e576200016e6200005f565b61074780620001b36000396000f3fe608060405234801561001057600080fd5b50600436106100cf5760003560e01c806340c10f191161008c5780638da5cb5b116100665780638da5cb5b1461021157806395d89b411461023c578063a9059cbb14610260578063dd62ed3e1461027357600080fd5b806340c10f19146101a85780635c658165146101bd57806370a08231146101e857600080fd5b806306fdde03146100d4578063095ea7b31461012657806318160ddd1461014957806323b872dd1461015b57806327e235e31461016e578063313ce5671461018e575b600080fd5b6101106040518060400160405280601a81526020017f4578616d706c6520466978656420537570706c7920546f6b656e00000000000081525081565b60405161011d91906105b7565b60405180910390f35b610139610134366004610621565b6102ac565b604051901515815260200161011d565b6000545b60405190815260200161011d565b61013961016936600461064b565b610319565b61014d61017c366004610687565b60026020526000908152604090205481565b610196600881565b60405160ff909116815260200161011d565b6101bb6101b6366004610621565b610495565b005b61014d6101cb3660046106a2565b600360209081526000928352604080842090915290825290205481565b61014d6101f6366004610687565b6001600160a01b031660009081526002602052604090205490565b600154610224906001600160a01b031681565b6040516001600160a01b03909116815260200161011d565b61011060405180604001604052806005815260200164119256115160da1b81525081565b61013961026e366004610621565b6104c6565b61014d6102813660046106a2565b6001600160a01b03918216600090815260036020908152604080832093909416825291909152205490565b3360008181526003602090815260408083206001600160a01b038716808552925280832085905551919290917f8c5be1e5ebec7d5bd14f71427d1e84f3dd0314c0f7b2291e5b200ac8c7c3b925906103079086815260200190565b60405180910390a35060015b92915050565b6001600160a01b038316600090815260026020526040812054821180159061036457506001600160a01b03841660009081526003602090815260408083203384529091529020548211155b80156103705750600082115b801561039c57506001600160a01b03831660009081526002602052604090205461039a83826106eb565b115b1561048a576001600160a01b038416600090815260026020526040812080548492906103c99084906106fe565b90915550506001600160a01b0384166000908152600360209081526040808320338452909152812080548492906104019084906106fe565b90915550506001600160a01b0383166000908152600260205260408120805484929061042e9084906106eb565b92505081905550826001600160a01b0316846001600160a01b03167fddf252ad1be2c89b69c2b068fc378daa952ba7f163c4a11628f55a4df523b3ef8460405161047a91815260200190565b60405180910390a350600161048e565b5060005b9392505050565b6001600160a01b038216600090815260026020526040812080548392906104bd9084906106eb565b90915550505050565b3360009081526002602052604081205482118015906104e55750600082115b801561051157506001600160a01b03831660009081526002602052604090205461050f83826106eb565b115b156105af5733600090815260026020526040812080548492906105359084906106fe565b90915550506001600160a01b038316600090815260026020526040812080548492906105629084906106eb565b90915550506040518281526001600160a01b0384169033907fddf252ad1be2c89b69c2b068fc378daa952ba7f163c4a11628f55a4df523b3ef9060200160405180910390a3506001610313565b506000610313565b600060208083528351808285015260005b818110156105e4578581018301518582016040015282016105c8565b506000604082860101526040601f19601f8301168501019250505092915050565b80356001600160a01b038116811461061c57600080fd5b919050565b6000806040838503121561063457600080fd5b61063d83610605565b946020939093013593505050565b60008060006060848603121561066057600080fd5b61066984610605565b925061067760208501610605565b9150604084013590509250925092565b60006020828403121561069957600080fd5b61048e82610605565b600080604083850312156106b557600080fd5b6106be83610605565b91506106cc60208401610605565b90509250929050565b634e487b7160e01b600052601160045260246000fd5b80820180821115610313576103136106d5565b81810381811115610313576103136106d556fea2646970667358221220867cb15e4a945cb225c37a844779f80445f93cda441f123b95d5a23469e6eace64736f6c63430008110033",
    "linkReferences": {}
  },
  "methodIdentifiers": {
    "allowance(address,address)": "dd62ed3e",
    "allowed(address,address)": "5c658165",
    "approve(address,uint256)": "095ea7b3",
    "balanceOf(address)": "70a08231",
    "balances(address)": "27e235e3",
    "decimals()": "313ce567",
    "mint(address,uint256)": "40c10f19",
    "name()": "06fdde03",
    "owner()": "8da5cb5b",
    "symbol()": "95d89b41",
    "totalSupply()": "18160ddd",
    "transfer(address,uint256)": "a9059cbb",
    "transferFrom(address,address,uint256)": "23b872dd"
  },
  "id": 1
}