{
  "abi": [
    {
      "inputs": [],
      "stateMutability": "nonpayable",
      "type": "constructor"
    },
    {
      "anonymous": false,
      "inputs": [
        {
          "indexed": false,
          "internalType": "bytes32",
          "name": "uuid",
          "type": "bytes32"
        }
      ],
      "name": "CreatedInvoice",
      "type": "event"
    },
    {
      "anonymous": false,
      "inputs": [
        {
          "indexed": true,
          "internalType": "address",
          "name": "previousOwner",
          "type": "address"
        },
        {
          "indexed": true,
          "internalType": "address",
          "name": "newOwner",
          "type": "address"
        }
      ],
      "name": "OwnershipTransferred",
      "type": "event"
    },
    {
      "anonymous": false,
      "inputs": [
        {
          "indexed": false,
          "internalType": "bytes32",
          "name": "uuid",
          "type": "bytes32"
        },
        {
          "indexed": false,
          "internalType": "address",
          "name": "from",
          "type": "address"
        }
      ],
      "name": "PaidInvoice",
      "type": "event"
    },
    {
      "inputs": [],
      "name": "contractVersion",
      "outputs": [
        {
          "internalType": "uint256",
          "name": "",
          "type": "uint256"
        }
      ],
      "stateMutability": "view",
      "type": "function"
    },
    {
      "inputs": [
        {
          "internalType": "string",
          "name": "description",
          "type": "string"
        },
        {
          "internalType": "uint256",
          "name": "nonce",
          "type": "uint256"
        },
        {
          "internalType": "address",
          "name": "token",
          "type": "address"
        },
        {
          "internalType": "uint256",
          "name": "totalAmountDue",
          "type": "uint256"
        },
        {
          "internalType": "address[]",
          "name": "payTo",
          "type": "address[]"
        },
        {
          "internalType": "uint256[]",
          "name": "amountsDue",
          "type": "uint256[]"
        },
        {
          "internalType": "uint256",
          "name": "ethBlockExpiresAt",
          "type": "uint256"
        },
        {
          "internalType": "bytes32",
          "name": "expecteduuid",
          "type": "bytes32"
        }
      ],
      "name": "createAndPayInvoice",
      "outputs": [
        {
          "internalType": "bool",
          "name": "",
          "type": "bool"
        }
      ],
      "stateMutability": "payable",
      "type": "function"
    },
    {
      "inputs": [
        {
          "internalType": "bytes32",
          "name": "invoiceUUID",
          "type": "bytes32"
        }
      ],
      "name": "getInvoiceDescription",
      "outputs": [
        {
          "internalType": "string",
          "name": "",
          "type": "string"
        }
      ],
      "stateMutability": "view",
      "type": "function"
    },
    {
      "inputs": [
        {
          "internalType": "bytes32",
          "name": "invoiceUUID",
          "type": "bytes32"
        }
      ],
      "name": "getInvoiceEthBlockPaidAt",
      "outputs": [
        {
          "internalType": "uint256",
          "name": "",
          "type": "uint256"
        }
      ],
      "stateMutability": "view",
      "type": "function"
    },
    {
      "inputs": [
        {
          "internalType": "bytes32",
          "name": "invoiceUUID",
          "type": "bytes32"
        }
      ],
      "name": "getInvoicePayer",
      "outputs": [
        {
          "internalType": "address",
          "name": "",
          "type": "address"
        }
      ],
      "stateMutability": "view",
      "type": "function"
    },
    {
      "inputs": [
        {
          "internalType": "bytes32",
          "name": "invoiceUUID",
          "type": "bytes32"
        }
      ],
      "name": "getInvoiceTokenCurrency",
      "outputs": [
        {
          "internalType": "address",
          "name": "",
          "type": "address"
        }
      ],
      "stateMutability": "view",
      "type": "function"
    },
    {
      "inputs": [
        {
          "internalType": "string",
          "name": "description",
          "type": "string"
        },
        {
          "internalType": "uint256",
          "name": "nonce",
          "type": "uint256"
        },
        {
          "internalType": "address",
          "name": "token",
          "type": "address"
        },
        {
          "internalType": "uint256",
          "name": "totalAmountDue",
          "type": "uint256"
        },
        {
          "internalType": "address[]",
          "name": "payTo",
          "type": "address[]"
        },
        {
          "internalType": "uint256[]",
          "name": "amountsDue",
          "type": "uint256[]"
        },
        {
          "internalType": "uint256",
          "name": "expiresAt",
          "type": "uint256"
        }
      ],
      "name": "getInvoiceUUID",
      "outputs": [
        {
          "internalType": "bytes32",
          "name": "uuid",
          "type": "bytes32"
        }
      ],
      "stateMutability": "view",
      "type": "function"
    },
    {
      "inputs": [
        {
          "internalType": "bytes32",
          "name": "invoiceUUID",
          "type": "bytes32"
        }
      ],
      "name": "invoiceWasCreated",
      "outputs": [
        {
          "internalType": "bool",
          "name": "",
          "type": "bool"
        }
      ],
      "stateMutability": "view",
      "type": "function"
    },
    {
      "inputs": [
        {
          "internalType": "bytes32",
          "name": "invoiceUUID",
          "type": "bytes32"
        }
      ],
      "name": "invoiceWasPaid",
      "outputs": [
        {
          "internalType": "bool",
          "name": "",
          "type": "bool"
        }
      ],
      "stateMutability": "view",
      "type": "function"
    },
    {
      "inputs": [
        {
          "internalType": "bytes32",
          "name": "",
          "type": "bytes32"
        }
      ],
      "name": "invoices",
      "outputs": [
        {
          "internalType": "bytes32",
          "name": "uuid",
          "type": "bytes32"
        },
        {
          "internalType": "string",
          "name": "description",
          "type": "string"
        },
        {
          "internalType": "uint256",
          "name": "nonce",
          "type": "uint256"
        },
        {
          "internalType": "bool",
          "name": "created",
          "type": "bool"
        },
        {
          "internalType": "address",
          "name": "token",
          "type": "address"
        },
        {
          "internalType": "uint256",
          "name": "totalAmountDue",
          "type": "uint256"
        },
        {
          "internalType": "address",
          "name": "paidBy",
          "type": "address"
        },
        {
          "internalType": "uint256",
          "name": "ethBlockPaidAt",
          "type": "uint256"
        },
        {
          "internalType": "uint256",
          "name": "ethBlockExpiresAt",
          "type": "uint256"
        }
      ],
      "stateMutability": "view",
      "type": "function"
    },
    {
      "inputs": [],
      "name": "lockContract",
      "outputs": [],
      "stateMutability": "nonpayable",
      "type": "function"
    },
    {
      "inputs": [],
      "name": "owner",
      "outputs": [
        {
          "internalType": "address",
          "name": "",
          "type": "address"
        }
      ],
      "stateMutability": "view",
      "type": "function"
    },
    {
      "inputs": [],
      "name": "renounceOwnership",
      "outputs": [],
      "stateMutability": "nonpayable",
      "type": "function"
    },
    {
      "inputs": [
        {
          "internalType": "address",
          "name": "newOwner",
          "type": "address"
        }
      ],
      "name": "transferOwnership",
      "outputs": [],
      "stateMutability": "nonpayable",
      "type": "function"
    }
  ],
  "bytecode": {
    "object": "0x60c06040526064608052601060a0526003805460ff1916905534801561002457600080fd5b5061002e33610037565b60018055610087565b600080546001600160a01b038381166001600160a01b0319831681178455604051919092169283917f8be0079c531659141344cd1fd0a4f28419497f9722a3daafe3b4186f6b6457e09190a35050565b60805160a05161159d6100b3600039600081816103680152610ce501526000610260015261159d6000f3fe6080604052600436106100dd5760003560e01c80638f65cc571161007f578063b85398e411610059578063b85398e4146102b5578063bf9d9688146102e7578063f2fde38b14610307578063f8a8a0761461032757600080fd5b80638f65cc5714610221578063a0a8e4601461024e578063aede70961461028257600080fd5b80636e76dc5f116100bb5780636e76dc5f14610199578063715018a6146101d7578063753868e3146101ee5780638da5cb5b1461020357600080fd5b8063401de830146100e257806355f471621461013857806366b08ad514610176575b600080fd5b3480156100ee57600080fd5b5061011b6100fd366004610e95565b6000908152600260205260409020600701546001600160a01b031690565b6040516001600160a01b0390911681526020015b60405180910390f35b34801561014457600080fd5b50610168610153366004610e95565b60009081526002602052604090206008015490565b60405190815260200161012f565b610189610184366004611072565b61035c565b604051901515815260200161012f565b3480156101a557600080fd5b5061011b6101b4366004610e95565b60009081526002602052604090206003015461010090046001600160a01b031690565b3480156101e357600080fd5b506101ec61049d565b005b3480156101fa57600080fd5b506101ec6104b1565b34801561020f57600080fd5b506000546001600160a01b031661011b565b34801561022d57600080fd5b5061024161023c366004610e95565b6104c8565b60405161012f9190611182565b34801561025a57600080fd5b506101687f000000000000000000000000000000000000000000000000000000000000000081565b34801561028e57600080fd5b5061018961029d366004610e95565b60009081526002602052604090206003015460ff1690565b3480156102c157600080fd5b506101896102d0366004610e95565b600090815260026020526040902060080154151590565b3480156102f357600080fd5b5061016861030236600461119c565b61056d565b34801561031357600080fd5b506101ec610322366004611252565b6105ba565b34801561033357600080fd5b50610347610342366004610e95565b610633565b60405161012f9998979695949392919061126d565b6000610366610715565b7f00000000000000000000000000000000000000000000000000000000000000006001600160a01b0316876001600160a01b031603610407578534146104025760405162461bcd60e51b815260206004820152602660248201527f5472616e73616374696f6e2073656e7420696e636f727265637420455448206160448201526536b7bab73a1760d11b60648201526084015b60405180910390fd5b610468565b34156104685760405162461bcd60e51b815260206004820152602a60248201527f5472616e73616374696f6e2073656e742045544820666f7220616e2045524332604482015269181034b73b37b4b1b29760b11b60648201526084016103f9565b600061047a8a8a8a8a8a8a8a8a61076e565b9050610485816109fa565b91505061049160018055565b98975050505050505050565b6104a5610c37565b6104af6000610c91565b565b6104b9610c37565b6003805460ff19166001179055565b60008181526002602052604090206001018054606091906104e8906112cd565b80601f0160208091040260200160405190810160405280929190818152602001828054610514906112cd565b80156105615780601f1061053657610100808354040283529160200191610561565b820191906000526020600020905b81548152906001019060200180831161054457829003601f168201915b50505050509050919050565b6000803090506000818a8a8a8a8a8a8a60405160200161059498979695949392919061133a565b60408051808303601f1901815291905280516020909101209a9950505050505050505050565b6105c2610c37565b6001600160a01b0381166106275760405162461bcd60e51b815260206004820152602660248201527f4f776e61626c653a206e6577206f776e657220697320746865207a65726f206160448201526564647265737360d01b60648201526084016103f9565b61063081610c91565b50565b60026020526000908152604090208054600182018054919291610655906112cd565b80601f0160208091040260200160405190810160405280929190818152602001828054610681906112cd565b80156106ce5780601f106106a3576101008083540402835291602001916106ce565b820191906000526020600020905b8154815290600101906020018083116106b157829003601f168201915b505050600284015460038501546004860154600787015460088801546009909801549697939660ff841696506001600160a01b036101009094048416955091939216919089565b6002600154036107675760405162461bcd60e51b815260206004820152601f60248201527f5265656e7472616e637947756172643a207265656e7472616e742063616c6c0060448201526064016103f9565b6002600155565b6000806107808a8a8a8a8a8a8a61056d565b60035490915060ff161561079357600080fd5b8281146107d95760405162461bcd60e51b8152602060048201526014602482015273125b9d985b1a59081a5b9d9bda58d9481d5d5a5960621b60448201526064016103f9565b600081815260026020526040902054156107f257600080fd5b84518651146108435760405162461bcd60e51b815260206004820152601d60248201527f496e76616c6964206e756d626572206f6620616d6f756e74732064756500000060448201526064016103f9565b83158061084f57508343105b61085857600080fd5b6040518061016001604052808281526020018b81526020018a8152602001600115158152602001896001600160a01b0316815260200188815260200187815260200186815260200160006001600160a01b031681526020016000815260200185815250600260008381526020019081526020016000206000820151816000015560208201518160010190816108ed9190611427565b5060408201516002820155606082015160038201805460808501516001600160a01b031661010002610100600160a81b0319931515939093166001600160a81b03199091161791909117905560a0820151600482015560c0820151805161095e916005840191602090910190610de0565b5060e0820151805161097a916006840191602090910190610e45565b506101008201516007820180546001600160a01b0319166001600160a01b039092169190911790556101208201516008820155610140909101516009909101556040518181527fc7ef264b3f844cbb14c2236b9e9682cdb5827cb89858ad61f7d3e7df566ec4c79060200160405180910390a19998505050505050505050565b600354600090339060ff1615610a0f57600080fd5b6000838152600260205260409020548314610a2957600080fd5b60008381526002602052604090206008015415610a4557600080fd5b6000805b600085815260026020526040902060050154811015610b5c576000858152600260205260408120600601805483908110610a8557610a856114e7565b906000526020600020015490508083610a9e9190611513565b6000878152600260205260409020600381015460059091018054929550610afd926101009092046001600160a01b03169187919086908110610ae257610ae26114e7565b6000918252602090912001546001600160a01b031684610ce1565b610b495760405162461bcd60e51b815260206004820152601960248201527f556e61626c6520746f2070617920616d6f756e74206475652e0000000000000060448201526064016103f9565b5080610b548161152c565b915050610a49565b506000848152600260205260409020600401548114610bbd5760405162461bcd60e51b815260206004820152601860248201527f496e76616c696420546f74616c20416d6f756e7420447565000000000000000060448201526064016103f9565b6000848152600260209081526040918290206007810180546001600160a01b0319166001600160a01b038716908117909155436008909201919091558251878152918201527f8c312afe1806eaa44098445e756760724a25f74268c8e3b29276b885713247d0910160405180910390a15060019392505050565b6000546001600160a01b031633146104af5760405162461bcd60e51b815260206004820181905260248201527f4f776e61626c653a2063616c6c6572206973206e6f7420746865206f776e657260448201526064016103f9565b600080546001600160a01b038381166001600160a01b0319831681178455604051919092169283917f8be0079c531659141344cd1fd0a4f28419497f9722a3daafe3b4186f6b6457e09190a35050565b60007f00000000000000000000000000000000000000000000000000000000000000006001600160a01b0316856001600160a01b031603610d58576040516001600160a01b0384169083156108fc029084906000818181858888f19350505050158015610d52573d6000803e3d6000fd5b50610dd5565b6040516323b872dd60e01b81526001600160a01b0385811660048301528481166024830152604482018490528616906323b872dd906064016020604051808303816000875af1158015610daf573d6000803e3d6000fd5b505050506040513d601f19601f82011682018060405250810190610dd39190611545565b505b506001949350505050565b828054828255906000526020600020908101928215610e35579160200282015b82811115610e3557825182546001600160a01b0319166001600160a01b03909116178255602090920191600190910190610e00565b50610e41929150610e80565b5090565b828054828255906000526020600020908101928215610e35579160200282015b82811115610e35578251825591602001919060010190610e65565b5b80821115610e415760008155600101610e81565b600060208284031215610ea757600080fd5b5035919050565b634e487b7160e01b600052604160045260246000fd5b604051601f8201601f1916810167ffffffffffffffff81118282101715610eed57610eed610eae565b604052919050565b600082601f830112610f0657600080fd5b813567ffffffffffffffff811115610f2057610f20610eae565b610f33601f8201601f1916602001610ec4565b818152846020838601011115610f4857600080fd5b816020850160208301376000918101602001919091529392505050565b80356001600160a01b0381168114610f7c57600080fd5b919050565b600067ffffffffffffffff821115610f9b57610f9b610eae565b5060051b60200190565b600082601f830112610fb657600080fd5b81356020610fcb610fc683610f81565b610ec4565b82815260059290921b84018101918181019086841115610fea57600080fd5b8286015b8481101561100c57610fff81610f65565b8352918301918301610fee565b509695505050505050565b600082601f83011261102857600080fd5b81356020611038610fc683610f81565b82815260059290921b8401810191818101908684111561105757600080fd5b8286015b8481101561100c578035835291830191830161105b565b600080600080600080600080610100898b03121561108f57600080fd5b883567ffffffffffffffff808211156110a757600080fd5b6110b38c838d01610ef5565b995060208b013598506110c860408c01610f65565b975060608b0135965060808b01359150808211156110e557600080fd5b6110f18c838d01610fa5565b955060a08b013591508082111561110757600080fd5b506111148b828c01611017565b93505060c0890135915060e089013590509295985092959890939650565b60005b8381101561114d578181015183820152602001611135565b50506000910152565b6000815180845261116e816020860160208601611132565b601f01601f19169290920160200192915050565b6020815260006111956020830184611156565b9392505050565b600080600080600080600060e0888a0312156111b757600080fd5b873567ffffffffffffffff808211156111cf57600080fd5b6111db8b838c01610ef5565b985060208a013597506111f060408b01610f65565b965060608a0135955060808a013591508082111561120d57600080fd5b6112198b838c01610fa5565b945060a08a013591508082111561122f57600080fd5b5061123c8a828b01611017565b92505060c0880135905092959891949750929550565b60006020828403121561126457600080fd5b61119582610f65565b60006101208b83528060208401526112878184018c611156565b604084019a909a52505095151560608701526001600160a01b03948516608087015260a0860193909352921660c084015260e08301919091526101009091015292915050565b600181811c908216806112e157607f821691505b60208210810361130157634e487b7160e01b600052602260045260246000fd5b50919050565b60008151602080840160005b8381101561132f57815187529582019590820190600101611313565b509495945050505050565b60006bffffffffffffffffffffffff19808b60601b168352895160206113668260148701838f01611132565b81850191508a6014830152828a60601b1660348301528860488301526068820192508751915080880160005b838110156113b75781516001600160a01b031685529382019390820190600101611392565b50506113c38388611307565b9586529094019b9a5050505050505050505050565b601f82111561142257600081815260208120601f850160051c810160208610156113ff5750805b601f850160051c820191505b8181101561141e5782815560010161140b565b5050505b505050565b815167ffffffffffffffff81111561144157611441610eae565b6114558161144f84546112cd565b846113d8565b602080601f83116001811461148a57600084156114725750858301515b600019600386901b1c1916600185901b17855561141e565b600085815260208120601f198616915b828110156114b95788860151825594840194600190910190840161149a565b50858210156114d75787850151600019600388901b60f8161c191681555b5050505050600190811b01905550565b634e487b7160e01b600052603260045260246000fd5b634e487b7160e01b600052601160045260246000fd5b80820180821115611526576115266114fd565b92915050565b60006001820161153e5761153e6114fd565b5060010190565b60006020828403121561155757600080fd5b8151801515811461119557600080fdfea26469706673582212203ac0182395179105b2423600f9f3b98eb4d516f5b6b2452212c5b522bfc55c2264736f6c63430008110033",
    "linkReferences": {}
  },
  "methodIdentifiers": {
    "contractVersion()": "a0a8e460",
    "createAndPayInvoice(string,uint256,address,uint256,address[],uint256[],uint256,bytes32)": "66b08ad5",
    "getInvoiceDescription(bytes32)": "8f65cc57",
    "getInvoiceEthBlockPaidAt(bytes32)": "55f47162",
    "getInvoicePayer(bytes32)": "401de830",
    "getInvoiceTokenCurrency(bytes32)": "6e76dc5f",
    "getInvoiceUUID(string,uint256,address,uint256,address[],uint256[],uint256)": "bf9d9688",
    "invoiceWasCreated(bytes32)": "aede7096",
    "invoiceWasPaid(bytes32)": "b85398e4",
    "invoices(bytes32)": "f8a8a076",
    "lockContract()": "753868e3",
    "owner()": "8da5cb5b",
    "renounceOwnership()": "715018a6",
    "transferOwnership(address)": "f2fde38b"
  },
  "id": 0
}