{
  "address": "0xdC726D36a2f1864D592fF8d420710cd2C3D350aa",
  "abi": [
    {
      "inputs": [],
      "stateMutability": "nonpayable",
      "type": "constructor"
    },
    {
      "anonymous": false,
      "inputs": [
        {
          "indexed": false,
          "internalType": "bytes32",
          "name": "uuid",
          "type": "bytes32"
        }
      ],
      "name": "CreatedInvoice",
      "type": "event"
    },
    {
      "anonymous": false,
      "inputs": [
        {
          "indexed": true,
          "internalType": "address",
          "name": "previousOwner",
          "type": "address"
        },
        {
          "indexed": true,
          "internalType": "address",
          "name": "newOwner",
          "type": "address"
        }
      ],
      "name": "OwnershipTransferred",
      "type": "event"
    },
    {
      "anonymous": false,
      "inputs": [
        {
          "indexed": false,
          "internalType": "bytes32",
          "name": "uuid",
          "type": "bytes32"
        },
        {
          "indexed": false,
          "internalType": "address",
          "name": "from",
          "type": "address"
        }
      ],
      "name": "PaidInvoice",
      "type": "event"
    },
    {
      "inputs": [],
      "name": "contractVersion",
      "outputs": [
        {
          "internalType": "uint256",
          "name": "",
          "type": "uint256"
        }
      ],
      "stateMutability": "view",
      "type": "function"
    },
    {
      "inputs": [
        {
          "internalType": "string",
          "name": "description",
          "type": "string"
        },
        {
          "internalType": "uint256",
          "name": "nonce",
          "type": "uint256"
        },
        {
          "internalType": "address",
          "name": "token",
          "type": "address"
        },
        {
          "internalType": "uint256",
          "name": "chainId",
          "type": "uint256"
        },
        {
          "internalType": "address[]",
          "name": "payTo",
          "type": "address[]"
        },
        {
          "internalType": "uint256[]",
          "name": "amountsDue",
          "type": "uint256[]"
        },
        {
          "internalType": "uint256",
          "name": "ethBlockExpiresAt",
          "type": "uint256"
        },
        {
          "internalType": "bytes32",
          "name": "expecteduuid",
          "type": "bytes32"
        }
      ],
      "name": "createAndPayInvoice",
      "outputs": [
        {
          "internalType": "bool",
          "name": "",
          "type": "bool"
        }
      ],
      "stateMutability": "payable",
      "type": "function"
    },
    {
      "inputs": [
        {
          "internalType": "bytes32",
          "name": "invoiceUUID",
          "type": "bytes32"
        }
      ],
      "name": "getInvoiceDescription",
      "outputs": [
        {
          "internalType": "string",
          "name": "",
          "type": "string"
        }
      ],
      "stateMutability": "view",
      "type": "function"
    },
    {
      "inputs": [
        {
          "internalType": "bytes32",
          "name": "invoiceUUID",
          "type": "bytes32"
        }
      ],
      "name": "getInvoiceEthBlockPaidAt",
      "outputs": [
        {
          "internalType": "uint256",
          "name": "",
          "type": "uint256"
        }
      ],
      "stateMutability": "view",
      "type": "function"
    },
    {
      "inputs": [
        {
          "internalType": "bytes32",
          "name": "invoiceUUID",
          "type": "bytes32"
        }
      ],
      "name": "getInvoicePayer",
      "outputs": [
        {
          "internalType": "address",
          "name": "",
          "type": "address"
        }
      ],
      "stateMutability": "view",
      "type": "function"
    },
    {
      "inputs": [
        {
          "internalType": "bytes32",
          "name": "invoiceUUID",
          "type": "bytes32"
        }
      ],
      "name": "getInvoiceTokenCurrency",
      "outputs": [
        {
          "internalType": "address",
          "name": "",
          "type": "address"
        }
      ],
      "stateMutability": "view",
      "type": "function"
    },
    {
      "inputs": [
        {
          "internalType": "string",
          "name": "description",
          "type": "string"
        },
        {
          "internalType": "uint256",
          "name": "nonce",
          "type": "uint256"
        },
        {
          "internalType": "address",
          "name": "token",
          "type": "address"
        },
        {
          "internalType": "uint256",
          "name": "chainId",
          "type": "uint256"
        },
        {
          "internalType": "address[]",
          "name": "payTo",
          "type": "address[]"
        },
        {
          "internalType": "uint256[]",
          "name": "amountsDue",
          "type": "uint256[]"
        },
        {
          "internalType": "uint256",
          "name": "expiresAt",
          "type": "uint256"
        }
      ],
      "name": "getInvoiceUUID",
      "outputs": [
        {
          "internalType": "bytes32",
          "name": "uuid",
          "type": "bytes32"
        }
      ],
      "stateMutability": "view",
      "type": "function"
    },
    {
      "inputs": [
        {
          "internalType": "bytes32",
          "name": "invoiceUUID",
          "type": "bytes32"
        }
      ],
      "name": "invoiceWasCreated",
      "outputs": [
        {
          "internalType": "bool",
          "name": "",
          "type": "bool"
        }
      ],
      "stateMutability": "view",
      "type": "function"
    },
    {
      "inputs": [
        {
          "internalType": "bytes32",
          "name": "invoiceUUID",
          "type": "bytes32"
        }
      ],
      "name": "invoiceWasPaid",
      "outputs": [
        {
          "internalType": "bool",
          "name": "",
          "type": "bool"
        }
      ],
      "stateMutability": "view",
      "type": "function"
    },
    {
      "inputs": [
        {
          "internalType": "bytes32",
          "name": "",
          "type": "bytes32"
        }
      ],
      "name": "invoices",
      "outputs": [
        {
          "internalType": "bytes32",
          "name": "uuid",
          "type": "bytes32"
        },
        {
          "internalType": "string",
          "name": "description",
          "type": "string"
        },
        {
          "internalType": "uint256",
          "name": "nonce",
          "type": "uint256"
        },
        {
          "internalType": "address",
          "name": "token",
          "type": "address"
        },
        {
          "internalType": "uint256",
          "name": "chainId",
          "type": "uint256"
        },
        {
          "internalType": "address",
          "name": "paidBy",
          "type": "address"
        },
        {
          "internalType": "uint256",
          "name": "ethBlockPaidAt",
          "type": "uint256"
        },
        {
          "internalType": "uint256",
          "name": "ethBlockExpiresAt",
          "type": "uint256"
        }
      ],
      "stateMutability": "view",
      "type": "function"
    },
    {
      "inputs": [],
      "name": "lockContract",
      "outputs": [],
      "stateMutability": "nonpayable",
      "type": "function"
    },
    {
      "inputs": [],
      "name": "owner",
      "outputs": [
        {
          "internalType": "address",
          "name": "",
          "type": "address"
        }
      ],
      "stateMutability": "view",
      "type": "function"
    },
    {
      "inputs": [],
      "name": "renounceOwnership",
      "outputs": [],
      "stateMutability": "nonpayable",
      "type": "function"
    },
    {
      "inputs": [
        {
          "internalType": "address",
          "name": "newOwner",
          "type": "address"
        }
      ],
      "name": "transferOwnership",
      "outputs": [],
      "stateMutability": "nonpayable",
      "type": "function"
    }
  ],
  "transactionHash": "0xc552211e52f99b7b42fc5813094f88658ef75130134981db0414d6c40d425d51",
  "args": [],
  "numDeployments": 1,
  "solcInputHash": "71befe91cd6524766337d6691bb4cdc3",
  "bytecode": "0x60c06040526064608052601060a0526003805460ff1916905534801561002457600080fd5b5061002e33610037565b60018055610087565b600080546001600160a01b038381166001600160a01b0319831681178455604051919092169283917f8be0079c531659141344cd1fd0a4f28419497f9722a3daafe3b4186f6b6457e09190a35050565b60805160a05161153c6100b36000396000818161036b0152610d240152600061025b015261153c6000f3fe6080604052600436106100dd5760003560e01c80638f65cc571161007f578063b85398e411610059578063b85398e4146102ac578063bf9d9688146102de578063f2fde38b146102fe578063f8a8a0761461031e57600080fd5b80638f65cc571461021c578063a0a8e46014610249578063aede70961461027d57600080fd5b80636e76dc5f116100bb5780636e76dc5f14610199578063715018a6146101d2578063753868e3146101e95780638da5cb5b146101fe57600080fd5b8063401de830146100e257806355f471621461013857806366b08ad514610176575b600080fd5b3480156100ee57600080fd5b5061011b6100fd366004610f47565b6000908152600260205260409020600701546001600160a01b031690565b6040516001600160a01b0390911681526020015b60405180910390f35b34801561014457600080fd5b50610168610153366004610f47565b60009081526002602052604090206008015490565b60405190815260200161012f565b610189610184366004611124565b610352565b604051901515815260200161012f565b3480156101a557600080fd5b5061011b6101b4366004610f47565b6000908152600260205260409020600301546001600160a01b031690565b3480156101de57600080fd5b506101e76104a1565b005b3480156101f557600080fd5b506101e76104b5565b34801561020a57600080fd5b506000546001600160a01b031661011b565b34801561022857600080fd5b5061023c610237366004610f47565b6104cc565b60405161012f9190611240565b34801561025557600080fd5b506101687f000000000000000000000000000000000000000000000000000000000000000081565b34801561028957600080fd5b50610189610298366004610f47565b600090815260026020526040902054151590565b3480156102b857600080fd5b506101896102c7366004610f47565b600090815260026020526040902060080154151590565b3480156102ea57600080fd5b506101686102f936600461125a565b610571565b34801561030a57600080fd5b506101e7610319366004611310565b6105be565b34801561032a57600080fd5b5061033e610339366004610f47565b610637565b60405161012f98979695949392919061132b565b600061035c61070f565b600061036785610768565b90507f00000000000000000000000000000000000000000000000000000000000000006001600160a01b0316886001600160a01b03160361040a578034146104055760405162461bcd60e51b815260206004820152602660248201527f5472616e73616374696f6e2073656e7420696e636f727265637420455448206160448201526536b7bab73a1760d11b60648201526084015b60405180910390fd5b61046b565b341561046b5760405162461bcd60e51b815260206004820152602a60248201527f5472616e73616374696f6e2073656e742045544820666f7220616e2045524332604482015269181034b73b37b4b1b29760b11b60648201526084016103fc565b600061047d8b8b8b8b8b8b8b8b6107b4565b9050610488816109f9565b9250505061049560018055565b98975050505050505050565b6104a9610c76565b6104b36000610cd0565b565b6104bd610c76565b6003805460ff19166001179055565b60008181526002602052604090206001018054606091906104ec90611382565b80601f016020809104026020016040519081016040528092919081815260200182805461051890611382565b80156105655780601f1061053a57610100808354040283529160200191610565565b820191906000526020600020905b81548152906001019060200180831161054857829003601f168201915b50505050509050919050565b6000803090506000818a8a8a8a8a8a8a6040516020016105989897969594939291906113e9565b60408051808303601f1901815291905280516020909101209a9950505050505050505050565b6105c6610c76565b6001600160a01b03811661062b5760405162461bcd60e51b815260206004820152602660248201527f4f776e61626c653a206e6577206f776e657220697320746865207a65726f206160448201526564647265737360d01b60648201526084016103fc565b61063481610cd0565b50565b6002602052600090815260409020805460018201805491929161065990611382565b80601f016020809104026020016040519081016040528092919081815260200182805461068590611382565b80156106d25780601f106106a7576101008083540402835291602001916106d2565b820191906000526020600020905b8154815290600101906020018083116106b557829003601f168201915b5050505060028301546003840154600485015460078601546008870154600990970154959693956001600160a01b03938416955091939216919088565b6002600154036107615760405162461bcd60e51b815260206004820152601f60248201527f5265656e7472616e637947756172643a207265656e7472616e742063616c6c0060448201526064016103fc565b6002600155565b6000805b82518110156107ae5782818151811061078757610787611487565b60200260200101518261079a91906114b3565b9150806107a6816114cb565b91505061076c565b50919050565b6000806107c68a8a8a8a8a8a8a610571565b60035490915060ff16156107d957600080fd5b82811461081f5760405162461bcd60e51b8152602060048201526014602482015273125b9d985b1a59081a5b9d9bda58d9481d5d5a5960621b60448201526064016103fc565b6000818152600260205260409020541561083857600080fd5b84518651146108895760405162461bcd60e51b815260206004820152601d60248201527f496e76616c6964206e756d626572206f6620616d6f756e74732064756500000060448201526064016103fc565b604080516101408101825282815260208082018d81528284018d90526001600160a01b038c166060840152608083018b905260a083018a905260c08301899052600060e0840181905261010084018190526101208401899052858152600283529390932082518155925180519293926109089260018501920190610e1f565b506040820151600282015560608201516003820180546001600160a01b0319166001600160a01b039092169190911790556080820151600482015560a0820151805161095e916005840191602090910190610ea3565b5060c0820151805161097a916006840191602090910190610ef8565b5060e08201516007820180546001600160a01b0319166001600160a01b039092169190911790556101008201516008820155610120909101516009909101556040518181527fc7ef264b3f844cbb14c2236b9e9682cdb5827cb89858ad61f7d3e7df566ec4c79060200160405180910390a19998505050505050505050565b600354600090339060ff1615610a0e57600080fd5b6000838152600260205260409020548314610a2857600080fd5b60008381526002602052604090206008015415610a4457600080fd5b6000838152600260205260409020600401541580610a72575060008381526002602052604090206004015446145b610ab15760405162461bcd60e51b815260206004820152601060248201526f125b9d985b1a590818da185a5b881a5960821b60448201526064016103fc565b6000838152600260205260409020600901541580610adf575060008381526002602052604090206009015443105b610ae857600080fd5b6000805b600085815260026020526040902060050154811015610bfb576000858152600260205260408120600601805483908110610b2857610b28611487565b906000526020600020015490508083610b4191906114b3565b6000878152600260205260409020600381015460059091018054929550610b9c926001600160a01b039092169187919086908110610b8157610b81611487565b6000918252602090912001546001600160a01b031684610d20565b610be85760405162461bcd60e51b815260206004820152601960248201527f556e61626c6520746f2070617920616d6f756e74206475652e0000000000000060448201526064016103fc565b5080610bf3816114cb565b915050610aec565b506000848152600260209081526040918290206007810180546001600160a01b0319166001600160a01b038716908117909155436008909201919091558251878152918201527f8c312afe1806eaa44098445e756760724a25f74268c8e3b29276b885713247d0910160405180910390a15060019392505050565b6000546001600160a01b031633146104b35760405162461bcd60e51b815260206004820181905260248201527f4f776e61626c653a2063616c6c6572206973206e6f7420746865206f776e657260448201526064016103fc565b600080546001600160a01b038381166001600160a01b0319831681178455604051919092169283917f8be0079c531659141344cd1fd0a4f28419497f9722a3daafe3b4186f6b6457e09190a35050565b60007f00000000000000000000000000000000000000000000000000000000000000006001600160a01b0316856001600160a01b031603610d97576040516001600160a01b0384169083156108fc029084906000818181858888f19350505050158015610d91573d6000803e3d6000fd5b50610e14565b6040516323b872dd60e01b81526001600160a01b0385811660048301528481166024830152604482018490528616906323b872dd906064016020604051808303816000875af1158015610dee573d6000803e3d6000fd5b505050506040513d601f19601f82011682018060405250810190610e1291906114e4565b505b506001949350505050565b828054610e2b90611382565b90600052602060002090601f016020900481019282610e4d5760008555610e93565b82601f10610e6657805160ff1916838001178555610e93565b82800160010185558215610e93579182015b82811115610e93578251825591602001919060010190610e78565b50610e9f929150610f32565b5090565b828054828255906000526020600020908101928215610e93579160200282015b82811115610e9357825182546001600160a01b0319166001600160a01b03909116178255602090920191600190910190610ec3565b828054828255906000526020600020908101928215610e935791602002820182811115610e93578251825591602001919060010190610e78565b5b80821115610e9f5760008155600101610f33565b600060208284031215610f5957600080fd5b5035919050565b634e487b7160e01b600052604160045260246000fd5b604051601f8201601f1916810167ffffffffffffffff81118282101715610f9f57610f9f610f60565b604052919050565b600082601f830112610fb857600080fd5b813567ffffffffffffffff811115610fd257610fd2610f60565b610fe5601f8201601f1916602001610f76565b818152846020838601011115610ffa57600080fd5b816020850160208301376000918101602001919091529392505050565b80356001600160a01b038116811461102e57600080fd5b919050565b600067ffffffffffffffff82111561104d5761104d610f60565b5060051b60200190565b600082601f83011261106857600080fd5b8135602061107d61107883611033565b610f76565b82815260059290921b8401810191818101908684111561109c57600080fd5b8286015b848110156110be576110b181611017565b83529183019183016110a0565b509695505050505050565b600082601f8301126110da57600080fd5b813560206110ea61107883611033565b82815260059290921b8401810191818101908684111561110957600080fd5b8286015b848110156110be578035835291830191830161110d565b600080600080600080600080610100898b03121561114157600080fd5b883567ffffffffffffffff8082111561115957600080fd5b6111658c838d01610fa7565b995060208b0135985061117a60408c01611017565b975060608b0135965060808b013591508082111561119757600080fd5b6111a38c838d01611057565b955060a08b01359150808211156111b957600080fd5b506111c68b828c016110c9565b93505060c0890135915060e089013590509295985092959890939650565b60005b838110156111ff5781810151838201526020016111e7565b8381111561120e576000848401525b50505050565b6000815180845261122c8160208601602086016111e4565b601f01601f19169290920160200192915050565b6020815260006112536020830184611214565b9392505050565b600080600080600080600060e0888a03121561127557600080fd5b873567ffffffffffffffff8082111561128d57600080fd5b6112998b838c01610fa7565b985060208a013597506112ae60408b01611017565b965060608a0135955060808a01359150808211156112cb57600080fd5b6112d78b838c01611057565b945060a08a01359150808211156112ed57600080fd5b506112fa8a828b016110c9565b92505060c0880135905092959891949750929550565b60006020828403121561132257600080fd5b61125382611017565b60006101008a83528060208401526113458184018b611214565b604084019990995250506001600160a01b03958616606082015260808101949094529190931660a083015260c082019290925260e0015292915050565b600181811c9082168061139657607f821691505b6020821081036107ae57634e487b7160e01b600052602260045260246000fd5b60008151602080840160005b838110156113de578151875295820195908201906001016113c2565b509495945050505050565b60006bffffffffffffffffffffffff19808b60601b168352895160206114158260148701838f016111e4565b81850191508a6014830152828a60601b1660348301528860488301526068820192508751915080880160005b838110156114665781516001600160a01b031685529382019390820190600101611441565b505061147283886113b6565b9586529094019b9a5050505050505050505050565b634e487b7160e01b600052603260045260246000fd5b634e487b7160e01b600052601160045260246000fd5b600082198211156114c6576114c661149d565b500190565b6000600182016114dd576114dd61149d565b5060010190565b6000602082840312156114f657600080fd5b8151801515811461125357600080fdfea2646970667358221220ce767169b9bd4855135fce29cc374a35ed806318ce8e8370e225f979f10978e564736f6c634300080d0033",
  "devdoc": {
    "kind": "dev",
    "methods": {
      "owner()": {
        "details": "Returns the address of the current owner."
      },
      "renounceOwnership()": {
        "details": "Leaves the contract without owner. It will not be possible to call `onlyOwner` functions anymore. Can only be called by the current owner. NOTE: Renouncing ownership will leave the contract without an owner, thereby removing any functionality that is only available to the owner."
      },
      "transferOwnership(address)": {
        "details": "Transfers ownership of the contract to a new account (`newOwner`). Can only be called by the current owner."
      }
    },
    "version": 1
  },
  "userdoc": {
    "kind": "user",
    "methods": {},
    "version": 1
  },
  "storageLayout": {
    "storage": [
      {
        "astId": 875,
        "contract": "contracts/Payspec.sol:Payspec",
        "label": "_owner",
        "offset": 0,
        "slot": "0",
        "type": "t_address"
      },
      {
        "astId": 991,
        "contract": "contracts/Payspec.sol:Payspec",
        "label": "_status",
        "offset": 0,
        "slot": "1",
        "type": "t_uint256"
      },
      {
        "astId": 22,
        "contract": "contracts/Payspec.sol:Payspec",
        "label": "invoices",
        "offset": 0,
        "slot": "2",
        "type": "t_mapping(t_bytes32,t_struct(Invoice)58_storage)"
      },
      {
        "astId": 25,
        "contract": "contracts/Payspec.sol:Payspec",
        "label": "lockedByOwner",
        "offset": 0,
        "slot": "3",
        "type": "t_bool"
      }
    ],
    "types": {
      "t_address": {
        "encoding": "inplace",
        "label": "address",
        "numberOfBytes": "20"
      },
      "t_array(t_address)dyn_storage": {
        "base": "t_address",
        "encoding": "dynamic_array",
        "label": "address[]",
        "numberOfBytes": "32"
      },
      "t_array(t_uint256)dyn_storage": {
        "base": "t_uint256",
        "encoding": "dynamic_array",
        "label": "uint256[]",
        "numberOfBytes": "32"
      },
      "t_bool": {
        "encoding": "inplace",
        "label": "bool",
        "numberOfBytes": "1"
      },
      "t_bytes32": {
        "encoding": "inplace",
        "label": "bytes32",
        "numberOfBytes": "32"
      },
      "t_mapping(t_bytes32,t_struct(Invoice)58_storage)": {
        "encoding": "mapping",
        "key": "t_bytes32",
        "label": "mapping(bytes32 => struct Payspec.Invoice)",
        "numberOfBytes": "32",
        "value": "t_struct(Invoice)58_storage"
      },
      "t_string_storage": {
        "encoding": "bytes",
        "label": "string",
        "numberOfBytes": "32"
      },
      "t_struct(Invoice)58_storage": {
        "encoding": "inplace",
        "label": "struct Payspec.Invoice",
        "members": [
          {
            "astId": 37,
            "contract": "contracts/Payspec.sol:Payspec",
            "label": "uuid",
            "offset": 0,
            "slot": "0",
            "type": "t_bytes32"
          },
          {
            "astId": 39,
            "contract": "contracts/Payspec.sol:Payspec",
            "label": "description",
            "offset": 0,
            "slot": "1",
            "type": "t_string_storage"
          },
          {
            "astId": 41,
            "contract": "contracts/Payspec.sol:Payspec",
            "label": "nonce",
            "offset": 0,
            "slot": "2",
            "type": "t_uint256"
          },
          {
            "astId": 43,
            "contract": "contracts/Payspec.sol:Payspec",
            "label": "token",
            "offset": 0,
            "slot": "3",
            "type": "t_address"
          },
          {
            "astId": 45,
            "contract": "contracts/Payspec.sol:Payspec",
            "label": "chainId",
            "offset": 0,
            "slot": "4",
            "type": "t_uint256"
          },
          {
            "astId": 48,
            "contract": "contracts/Payspec.sol:Payspec",
            "label": "payTo",
            "offset": 0,
            "slot": "5",
            "type": "t_array(t_address)dyn_storage"
          },
          {
            "astId": 51,
            "contract": "contracts/Payspec.sol:Payspec",
            "label": "amountsDue",
            "offset": 0,
            "slot": "6",
            "type": "t_array(t_uint256)dyn_storage"
          },
          {
            "astId": 53,
            "contract": "contracts/Payspec.sol:Payspec",
            "label": "paidBy",
            "offset": 0,
            "slot": "7",
            "type": "t_address"
          },
          {
            "astId": 55,
            "contract": "contracts/Payspec.sol:Payspec",
            "label": "ethBlockPaidAt",
            "offset": 0,
            "slot": "8",
            "type": "t_uint256"
          },
          {
            "astId": 57,
            "contract": "contracts/Payspec.sol:Payspec",
            "label": "ethBlockExpiresAt",
            "offset": 0,
            "slot": "9",
            "type": "t_uint256"
          }
        ],
        "numberOfBytes": "320"
      },
      "t_uint256": {
        "encoding": "inplace",
        "label": "uint256",
        "numberOfBytes": "32"
      }
    }
  }
}