{
  "address": "0x365f2dE18625085733286AeDb20c3EE489eEcBC2",
  "abi": [
    {
      "inputs": [],
      "stateMutability": "nonpayable",
      "type": "constructor"
    },
    {
      "anonymous": false,
      "inputs": [
        {
          "indexed": false,
          "internalType": "bytes32",
          "name": "uuid",
          "type": "bytes32"
        },
        {
          "indexed": false,
          "internalType": "bytes32",
          "name": "metadataHash",
          "type": "bytes32"
        }
      ],
      "name": "CreatedInvoice",
      "type": "event"
    },
    {
      "anonymous": false,
      "inputs": [
        {
          "indexed": true,
          "internalType": "address",
          "name": "previousOwner",
          "type": "address"
        },
        {
          "indexed": true,
          "internalType": "address",
          "name": "newOwner",
          "type": "address"
        }
      ],
      "name": "OwnershipTransferred",
      "type": "event"
    },
    {
      "anonymous": false,
      "inputs": [
        {
          "indexed": false,
          "internalType": "bytes32",
          "name": "uuid",
          "type": "bytes32"
        },
        {
          "indexed": false,
          "internalType": "address",
          "name": "from",
          "type": "address"
        },
        {
          "indexed": false,
          "internalType": "uint256",
          "name": "totalPaidAmt",
          "type": "uint256"
        }
      ],
      "name": "PaidInvoice",
      "type": "event"
    },
    {
      "anonymous": false,
      "inputs": [
        {
          "indexed": false,
          "internalType": "bytes32",
          "name": "uuid",
          "type": "bytes32"
        },
        {
          "indexed": false,
          "internalType": "address",
          "name": "token",
          "type": "address"
        },
        {
          "indexed": false,
          "internalType": "address",
          "name": "from",
          "type": "address"
        },
        {
          "indexed": false,
          "internalType": "address",
          "name": "to",
          "type": "address"
        },
        {
          "indexed": false,
          "internalType": "uint256",
          "name": "amt",
          "type": "uint256"
        }
      ],
      "name": "PaymentMade",
      "type": "event"
    },
    {
      "inputs": [],
      "name": "contractVersion",
      "outputs": [
        {
          "internalType": "uint256",
          "name": "",
          "type": "uint256"
        }
      ],
      "stateMutability": "view",
      "type": "function"
    },
    {
      "inputs": [
        {
          "internalType": "address",
          "name": "token",
          "type": "address"
        },
        {
          "internalType": "address[]",
          "name": "payTo",
          "type": "address[]"
        },
        {
          "internalType": "uint256[]",
          "name": "amountsDue",
          "type": "uint256[]"
        },
        {
          "internalType": "uint256",
          "name": "nonce",
          "type": "uint256"
        },
        {
          "internalType": "uint256",
          "name": "chainId",
          "type": "uint256"
        },
        {
          "internalType": "bytes32",
          "name": "metadataHash",
          "type": "bytes32"
        },
        {
          "internalType": "uint256",
          "name": "expiresAt",
          "type": "uint256"
        },
        {
          "internalType": "bytes32",
          "name": "expecteduuid",
          "type": "bytes32"
        }
      ],
      "name": "createAndPayInvoice",
      "outputs": [
        {
          "internalType": "bool",
          "name": "",
          "type": "bool"
        }
      ],
      "stateMutability": "payable",
      "type": "function"
    },
    {
      "inputs": [
        {
          "internalType": "bytes32",
          "name": "invoiceUUID",
          "type": "bytes32"
        }
      ],
      "name": "getInvoiceMetadataHash",
      "outputs": [
        {
          "internalType": "bytes32",
          "name": "",
          "type": "bytes32"
        }
      ],
      "stateMutability": "view",
      "type": "function"
    },
    {
      "inputs": [
        {
          "internalType": "bytes32",
          "name": "invoiceUUID",
          "type": "bytes32"
        }
      ],
      "name": "getInvoicePaidAt",
      "outputs": [
        {
          "internalType": "uint256",
          "name": "",
          "type": "uint256"
        }
      ],
      "stateMutability": "view",
      "type": "function"
    },
    {
      "inputs": [
        {
          "internalType": "bytes32",
          "name": "invoiceUUID",
          "type": "bytes32"
        }
      ],
      "name": "getInvoicePayer",
      "outputs": [
        {
          "internalType": "address",
          "name": "",
          "type": "address"
        }
      ],
      "stateMutability": "view",
      "type": "function"
    },
    {
      "inputs": [
        {
          "internalType": "bytes32",
          "name": "invoiceUUID",
          "type": "bytes32"
        }
      ],
      "name": "getInvoiceTokenCurrency",
      "outputs": [
        {
          "internalType": "address",
          "name": "",
          "type": "address"
        }
      ],
      "stateMutability": "view",
      "type": "function"
    },
    {
      "inputs": [
        {
          "internalType": "address",
          "name": "token",
          "type": "address"
        },
        {
          "internalType": "address[]",
          "name": "payTo",
          "type": "address[]"
        },
        {
          "internalType": "uint256[]",
          "name": "amountsDue",
          "type": "uint256[]"
        },
        {
          "internalType": "uint256",
          "name": "nonce",
          "type": "uint256"
        },
        {
          "internalType": "uint256",
          "name": "chainId",
          "type": "uint256"
        },
        {
          "internalType": "bytes32",
          "name": "metadataHash",
          "type": "bytes32"
        },
        {
          "internalType": "uint256",
          "name": "expiresAt",
          "type": "uint256"
        }
      ],
      "name": "getInvoiceUUID",
      "outputs": [
        {
          "internalType": "bytes32",
          "name": "uuid",
          "type": "bytes32"
        }
      ],
      "stateMutability": "view",
      "type": "function"
    },
    {
      "inputs": [
        {
          "internalType": "bytes32",
          "name": "invoiceUUID",
          "type": "bytes32"
        }
      ],
      "name": "invoiceWasCreated",
      "outputs": [
        {
          "internalType": "bool",
          "name": "",
          "type": "bool"
        }
      ],
      "stateMutability": "view",
      "type": "function"
    },
    {
      "inputs": [
        {
          "internalType": "bytes32",
          "name": "invoiceUUID",
          "type": "bytes32"
        }
      ],
      "name": "invoiceWasPaid",
      "outputs": [
        {
          "internalType": "bool",
          "name": "",
          "type": "bool"
        }
      ],
      "stateMutability": "view",
      "type": "function"
    },
    {
      "inputs": [
        {
          "internalType": "bytes32",
          "name": "",
          "type": "bytes32"
        }
      ],
      "name": "invoices",
      "outputs": [
        {
          "internalType": "bytes32",
          "name": "uuid",
          "type": "bytes32"
        },
        {
          "internalType": "address",
          "name": "token",
          "type": "address"
        },
        {
          "internalType": "uint256",
          "name": "chainId",
          "type": "uint256"
        },
        {
          "internalType": "bytes32",
          "name": "metadataHash",
          "type": "bytes32"
        },
        {
          "internalType": "uint256",
          "name": "nonce",
          "type": "uint256"
        },
        {
          "internalType": "address",
          "name": "paidBy",
          "type": "address"
        },
        {
          "internalType": "uint256",
          "name": "paidAt",
          "type": "uint256"
        },
        {
          "internalType": "uint256",
          "name": "expiresAt",
          "type": "uint256"
        }
      ],
      "stateMutability": "view",
      "type": "function"
    },
    {
      "inputs": [],
      "name": "lockContract",
      "outputs": [],
      "stateMutability": "nonpayable",
      "type": "function"
    },
    {
      "inputs": [],
      "name": "owner",
      "outputs": [
        {
          "internalType": "address",
          "name": "",
          "type": "address"
        }
      ],
      "stateMutability": "view",
      "type": "function"
    },
    {
      "inputs": [],
      "name": "renounceOwnership",
      "outputs": [],
      "stateMutability": "nonpayable",
      "type": "function"
    },
    {
      "inputs": [
        {
          "internalType": "address",
          "name": "newOwner",
          "type": "address"
        }
      ],
      "name": "transferOwnership",
      "outputs": [],
      "stateMutability": "nonpayable",
      "type": "function"
    }
  ],
  "transactionHash": "0x0671d2739d865ba64c70f8c9e5de5a2ed413e1ba2a137d7c5e7fcdc4e18f74fe",
  "args": [],
  "numDeployments": 4,
  "solcInputHash": "3849f0d2d39efe295f33f57c680d8978",
  "bytecode": "0x60c06040526064608052601060a0526003805460ff1916905534801561002457600080fd5b5061002e33610037565b60018055610087565b600080546001600160a01b038381166001600160a01b0319831681178455604051919092169283917f8be0079c531659141344cd1fd0a4f28419497f9722a3daafe3b4186f6b6457e09190a35050565b60805160a0516112c46100b36000396000818161041c0152610cc30152600061025e01526112c46000f3fe6080604052600436106100dd5760003560e01c80638e71def51161007f578063b85398e411610059578063b85398e4146102af578063be368c93146102e1578063f2fde38b14610301578063f8a8a0761461032157600080fd5b80638e71def514610229578063a0a8e4601461024c578063aede70961461028057600080fd5b8063715018a6116100bb578063715018a6146101af578063753868e3146101c6578063869356ea146101db5780638da5cb5b1461020b57600080fd5b80631ae6d08c146100e2578063401de830146101255780636e76dc5f14610176575b600080fd5b3480156100ee57600080fd5b506101126100fd366004610e73565b60009081526002602052604090206008015490565b6040519081526020015b60405180910390f35b34801561013157600080fd5b5061015e610140366004610e73565b6000908152600260205260409020600701546001600160a01b031690565b6040516001600160a01b03909116815260200161011c565b34801561018257600080fd5b5061015e610191366004610e73565b6000908152600260205260409020600101546001600160a01b031690565b3480156101bb57600080fd5b506101c46103d8565b005b3480156101d257600080fd5b506101c46103ec565b3480156101e757600080fd5b506101126101f6366004610e73565b60009081526002602052604090206005015490565b34801561021757600080fd5b506000546001600160a01b031661015e565b61023c610237366004610fe0565b610403565b604051901515815260200161011c565b34801561025857600080fd5b506101127f000000000000000000000000000000000000000000000000000000000000000081565b34801561028c57600080fd5b5061023c61029b366004610e73565b600090815260026020526040902054151590565b3480156102bb57600080fd5b5061023c6102ca366004610e73565b600090815260026020526040902060080154151590565b3480156102ed57600080fd5b506101126102fc366004611082565b610552565b34801561030d57600080fd5b506101c461031c36600461111b565b61059f565b34801561032d57600080fd5b5061038d61033c366004610e73565b60026020819052600091825260409091208054600182015492820154600583015460068401546007850154600886015460099096015494966001600160a01b03908116969495939492939116919088565b604080519889526001600160a01b0397881660208a01528801959095526060870193909352608086019190915290921660a084015260c083019190915260e08201526101000161011c565b6103e0610618565b6103ea6000610672565b565b6103f4610618565b6003805460ff19166001179055565b600061040d6106c2565b60006104188861071b565b90507f00000000000000000000000000000000000000000000000000000000000000006001600160a01b03168a6001600160a01b0316036104bb578034146104b65760405162461bcd60e51b815260206004820152602660248201527f5472616e73616374696f6e2073656e7420696e636f727265637420455448206160448201526536b7bab73a1760d11b60648201526084015b60405180910390fd5b61051c565b341561051c5760405162461bcd60e51b815260206004820152602a60248201527f5472616e73616374696f6e2073656e742045544820666f7220616e2045524332604482015269181034b73b37b4b1b29760b11b60648201526084016104ad565b600061052e8b8b8b8b8b8b8b8b610767565b905061053981610996565b9250505061054660018055565b98975050505050505050565b6000803090506000818a8a8a8a8a8a8a604051602001610579989796959493929190611178565b60408051808303601f1901815291905280516020909101209a9950505050505050505050565b6105a7610618565b6001600160a01b03811661060c5760405162461bcd60e51b815260206004820152602660248201527f4f776e61626c653a206e6577206f776e657220697320746865207a65726f206160448201526564647265737360d01b60648201526084016104ad565b61061581610672565b50565b6000546001600160a01b031633146103ea5760405162461bcd60e51b815260206004820181905260248201527f4f776e61626c653a2063616c6c6572206973206e6f7420746865206f776e657260448201526064016104ad565b600080546001600160a01b038381166001600160a01b0319831681178455604051919092169283917f8be0079c531659141344cd1fd0a4f28419497f9722a3daafe3b4186f6b6457e09190a35050565b6002600154036107145760405162461bcd60e51b815260206004820152601f60248201527f5265656e7472616e637947756172643a207265656e7472616e742063616c6c0060448201526064016104ad565b6002600155565b6000805b82518110156107615782818151811061073a5761073a61120f565b60200260200101518261074d919061123b565b91508061075981611253565b91505061071f565b50919050565b6000806107798a8a8a8a8a8a8a610552565b60035490915060ff161561078c57600080fd5b8281146107d25760405162461bcd60e51b8152602060048201526014602482015273125b9d985b1a59081a5b9d9bda58d9481d5d5a5960621b60448201526064016104ad565b600081815260026020526040902054156107eb57600080fd5b875189511461083c5760405162461bcd60e51b815260206004820152601d60248201527f496e76616c6964206e756d626572206f6620616d6f756e74732064756500000060448201526064016104ad565b60408051610140810182528281526001600160a01b038c811660208084019182528385018b8152606085018f8152608086018f905260a086018c905260c086018e9052600060e08701819052610100870181905261012087018c905288815260028085529790208651815593516001850180546001600160a01b0319169190961617909455519482019490945590518051929391926108e19260038501920190610dbe565b50608082015180516108fd916004840191602090910190610e23565b5060a0820151600582015560c0820151600682015560e08201516007820180546001600160a01b0319166001600160a01b0390921691909117905561010082015160088201556101209091015160099091015560408051828152602081018790527f036b515b9138eae2ab3d3f004c12dd67052d57e4aa0318eb75c7a1a51dae8df4910160405180910390a19998505050505050505050565b600354600090339060ff16156109ab57600080fd5b60008381526002602052604090205483146109c557600080fd5b600083815260026020526040902060080154156109e157600080fd5b600083815260026020819052604090912001541580610a1157506000838152600260208190526040909120015446145b610a505760405162461bcd60e51b815260206004820152601060248201526f125b9d985b1a590818da185a5b881a5960821b60448201526064016104ad565b6000838152600260205260409020600901541580610a7e575060008381526002602052604090206009015442105b610a8757600080fd5b6000805b600085815260026020526040902060030154811015610c3c576000858152600260205260408120600401805483908110610ac757610ac761120f565b906000526020600020015490508083610ae0919061123b565b6000878152600260205260409020600181015460039091018054929550610b3b926001600160a01b039092169187919086908110610b2057610b2061120f565b6000918252602090912001546001600160a01b031684610cbf565b610b875760405162461bcd60e51b815260206004820152601960248201527f556e61626c6520746f2070617920616d6f756e74206475652e0000000000000060448201526064016104ad565b60008681526002602052604090206001810154600390910180547f6ba7fdea02f7e66e1a61d9650c9bdf1e2629ac9e74b77904e006d4b1556cdb349289926001600160a01b039091169188919087908110610be457610be461120f565b60009182526020918290200154604080519586526001600160a01b0394851692860192909252918316908401521660608201526080810183905260a00160405180910390a15080610c3481611253565b915050610a8b565b506000848152600260209081526040918290206007810180546001600160a01b0319166001600160a01b038716908117909155426008909201919091558251878152918201529081018290527f482e6d66f9b740a0e8357ad7c450ddce066bdb10162f358004ff6341b1bbc2d89060600160405180910390a15060019392505050565b60007f00000000000000000000000000000000000000000000000000000000000000006001600160a01b0316856001600160a01b031603610d36576040516001600160a01b0384169083156108fc029084906000818181858888f19350505050158015610d30573d6000803e3d6000fd5b50610db3565b6040516323b872dd60e01b81526001600160a01b0385811660048301528481166024830152604482018490528616906323b872dd906064016020604051808303816000875af1158015610d8d573d6000803e3d6000fd5b505050506040513d601f19601f82011682018060405250810190610db1919061126c565b505b506001949350505050565b828054828255906000526020600020908101928215610e13579160200282015b82811115610e1357825182546001600160a01b0319166001600160a01b03909116178255602090920191600190910190610dde565b50610e1f929150610e5e565b5090565b828054828255906000526020600020908101928215610e13579160200282015b82811115610e13578251825591602001919060010190610e43565b5b80821115610e1f5760008155600101610e5f565b600060208284031215610e8557600080fd5b5035919050565b80356001600160a01b0381168114610ea357600080fd5b919050565b634e487b7160e01b600052604160045260246000fd5b604051601f8201601f1916810167ffffffffffffffff81118282101715610ee757610ee7610ea8565b604052919050565b600067ffffffffffffffff821115610f0957610f09610ea8565b5060051b60200190565b600082601f830112610f2457600080fd5b81356020610f39610f3483610eef565b610ebe565b82815260059290921b84018101918181019086841115610f5857600080fd5b8286015b84811015610f7a57610f6d81610e8c565b8352918301918301610f5c565b509695505050505050565b600082601f830112610f9657600080fd5b81356020610fa6610f3483610eef565b82815260059290921b84018101918181019086841115610fc557600080fd5b8286015b84811015610f7a5780358352918301918301610fc9565b600080600080600080600080610100898b031215610ffd57600080fd5b61100689610e8c565b9750602089013567ffffffffffffffff8082111561102357600080fd5b61102f8c838d01610f13565b985060408b013591508082111561104557600080fd5b506110528b828c01610f85565b989b979a5097986060810135985060808101359760a0820135975060c0820135965060e090910135945092505050565b600080600080600080600060e0888a03121561109d57600080fd5b6110a688610e8c565b9650602088013567ffffffffffffffff808211156110c357600080fd5b6110cf8b838c01610f13565b975060408a01359150808211156110e557600080fd5b506110f28a828b01610f85565b979a96995096976060810135975060808101359660a0820135965060c090910135945092505050565b60006020828403121561112d57600080fd5b61113682610e8c565b9392505050565b600081518084526020808501945080840160005b8381101561116d57815187529582019590820190600101611151565b509495945050505050565b6001600160a01b0389811682528881166020808401919091526101006040840181905289519084018190526000926101208501928b810192855b818110156111d05784518416865294820194938201936001016111b2565b505050505082810360608401526111e7818961113d565b9150508560808301528460a08301528360c08301528260e08301529998505050505050505050565b634e487b7160e01b600052603260045260246000fd5b634e487b7160e01b600052601160045260246000fd5b6000821982111561124e5761124e611225565b500190565b60006001820161126557611265611225565b5060010190565b60006020828403121561127e57600080fd5b8151801515811461113657600080fdfea2646970667358221220ee5ad9dfd00b0de7b3ff51580aa2bbe8fcd70bec5e91ef2389b1432e1f5b8d9e64736f6c634300080d0033",
  "devdoc": {
    "kind": "dev",
    "methods": {
      "owner()": {
        "details": "Returns the address of the current owner."
      },
      "renounceOwnership()": {
        "details": "Leaves the contract without owner. It will not be possible to call `onlyOwner` functions anymore. Can only be called by the current owner. NOTE: Renouncing ownership will leave the contract without an owner, thereby removing any functionality that is only available to the owner."
      },
      "transferOwnership(address)": {
        "details": "Transfers ownership of the contract to a new account (`newOwner`). Can only be called by the current owner."
      }
    },
    "version": 1
  },
  "userdoc": {
    "kind": "user",
    "methods": {},
    "version": 1
  },
  "storageLayout": {
    "storage": [
      {
        "astId": 620,
        "contract": "contracts/Payspec.sol:Payspec",
        "label": "_owner",
        "offset": 0,
        "slot": "0",
        "type": "t_address"
      },
      {
        "astId": 736,
        "contract": "contracts/Payspec.sol:Payspec",
        "label": "_status",
        "offset": 0,
        "slot": "1",
        "type": "t_uint256"
      },
      {
        "astId": 22,
        "contract": "contracts/Payspec.sol:Payspec",
        "label": "invoices",
        "offset": 0,
        "slot": "2",
        "type": "t_mapping(t_bytes32,t_struct(Invoice)74_storage)"
      },
      {
        "astId": 25,
        "contract": "contracts/Payspec.sol:Payspec",
        "label": "lockedByOwner",
        "offset": 0,
        "slot": "3",
        "type": "t_bool"
      }
    ],
    "types": {
      "t_address": {
        "encoding": "inplace",
        "label": "address",
        "numberOfBytes": "20"
      },
      "t_array(t_address)dyn_storage": {
        "base": "t_address",
        "encoding": "dynamic_array",
        "label": "address[]",
        "numberOfBytes": "32"
      },
      "t_array(t_uint256)dyn_storage": {
        "base": "t_uint256",
        "encoding": "dynamic_array",
        "label": "uint256[]",
        "numberOfBytes": "32"
      },
      "t_bool": {
        "encoding": "inplace",
        "label": "bool",
        "numberOfBytes": "1"
      },
      "t_bytes32": {
        "encoding": "inplace",
        "label": "bytes32",
        "numberOfBytes": "32"
      },
      "t_mapping(t_bytes32,t_struct(Invoice)74_storage)": {
        "encoding": "mapping",
        "key": "t_bytes32",
        "label": "mapping(bytes32 => struct Payspec.Invoice)",
        "numberOfBytes": "32",
        "value": "t_struct(Invoice)74_storage"
      },
      "t_struct(Invoice)74_storage": {
        "encoding": "inplace",
        "label": "struct Payspec.Invoice",
        "members": [
          {
            "astId": 53,
            "contract": "contracts/Payspec.sol:Payspec",
            "label": "uuid",
            "offset": 0,
            "slot": "0",
            "type": "t_bytes32"
          },
          {
            "astId": 55,
            "contract": "contracts/Payspec.sol:Payspec",
            "label": "token",
            "offset": 0,
            "slot": "1",
            "type": "t_address"
          },
          {
            "astId": 57,
            "contract": "contracts/Payspec.sol:Payspec",
            "label": "chainId",
            "offset": 0,
            "slot": "2",
            "type": "t_uint256"
          },
          {
            "astId": 60,
            "contract": "contracts/Payspec.sol:Payspec",
            "label": "payTo",
            "offset": 0,
            "slot": "3",
            "type": "t_array(t_address)dyn_storage"
          },
          {
            "astId": 63,
            "contract": "contracts/Payspec.sol:Payspec",
            "label": "amountsDue",
            "offset": 0,
            "slot": "4",
            "type": "t_array(t_uint256)dyn_storage"
          },
          {
            "astId": 65,
            "contract": "contracts/Payspec.sol:Payspec",
            "label": "metadataHash",
            "offset": 0,
            "slot": "5",
            "type": "t_bytes32"
          },
          {
            "astId": 67,
            "contract": "contracts/Payspec.sol:Payspec",
            "label": "nonce",
            "offset": 0,
            "slot": "6",
            "type": "t_uint256"
          },
          {
            "astId": 69,
            "contract": "contracts/Payspec.sol:Payspec",
            "label": "paidBy",
            "offset": 0,
            "slot": "7",
            "type": "t_address"
          },
          {
            "astId": 71,
            "contract": "contracts/Payspec.sol:Payspec",
            "label": "paidAt",
            "offset": 0,
            "slot": "8",
            "type": "t_uint256"
          },
          {
            "astId": 73,
            "contract": "contracts/Payspec.sol:Payspec",
            "label": "expiresAt",
            "offset": 0,
            "slot": "9",
            "type": "t_uint256"
          }
        ],
        "numberOfBytes": "320"
      },
      "t_uint256": {
        "encoding": "inplace",
        "label": "uint256",
        "numberOfBytes": "32"
      }
    }
  }
}